{
  "contractName": "SupplyChain",
  "abi": [
    {
      "inputs": [],
      "payable": false,
      "stateMutability": "nonpayable",
      "type": "constructor"
    },
    {
      "anonymous": false,
      "inputs": [
        {
          "indexed": false,
          "internalType": "string",
          "name": "uuid",
          "type": "string"
        },
        {
          "indexed": false,
          "internalType": "string",
          "name": "name",
          "type": "string"
        },
        {
          "indexed": false,
          "internalType": "string",
          "name": "description",
          "type": "string"
        },
        {
          "indexed": false,
          "internalType": "string",
          "name": "manufacturer",
          "type": "string"
        },
        {
          "indexed": false,
          "internalType": "string",
          "name": "createdDate",
          "type": "string"
        }
      ],
      "name": "ProductAdded",
      "type": "event"
    },
    {
      "anonymous": false,
      "inputs": [
        {
          "indexed": false,
          "internalType": "string",
          "name": "productId",
          "type": "string"
        },
        {
          "indexed": false,
          "internalType": "string",
          "name": "title",
          "type": "string"
        },
        {
          "indexed": false,
          "internalType": "string",
          "name": "description",
          "type": "string"
        },
        {
          "indexed": false,
          "internalType": "string",
          "name": "createdDate",
          "type": "string"
        }
      ],
      "name": "StateChanged",
      "type": "event"
    },
    {
      "constant": true,
      "inputs": [],
      "name": "owner",
      "outputs": [
        {
          "internalType": "address",
          "name": "",
          "type": "address"
        }
      ],
      "payable": false,
      "stateMutability": "view",
      "type": "function"
    },
    {
      "constant": false,
      "inputs": [
        {
          "internalType": "string",
          "name": "_productId",
          "type": "string"
        },
        {
          "internalType": "string",
          "name": "_name",
          "type": "string"
        },
        {
          "internalType": "string",
          "name": "_description",
          "type": "string"
        },
        {
          "internalType": "string",
          "name": "_manufacturer",
          "type": "string"
        },
        {
          "internalType": "string",
          "name": "_createdDate",
          "type": "string"
        },
        {
          "internalType": "string",
          "name": "_createdById",
          "type": "string"
        }
      ],
      "name": "addProduct",
      "outputs": [
        {
          "internalType": "bool",
          "name": "",
          "type": "bool"
        }
      ],
      "payable": false,
      "stateMutability": "nonpayable",
      "type": "function"
    },
    {
      "constant": true,
      "inputs": [
        {
          "internalType": "string",
          "name": "_productId",
          "type": "string"
        }
      ],
      "name": "getProduct",
      "outputs": [
        {
          "internalType": "string",
          "name": "",
          "type": "string"
        },
        {
          "internalType": "string",
          "name": "",
          "type": "string"
        },
        {
          "internalType": "string",
          "name": "",
          "type": "string"
        },
        {
          "internalType": "string",
          "name": "",
          "type": "string"
        },
        {
          "internalType": "string",
          "name": "",
          "type": "string"
        }
      ],
      "payable": false,
      "stateMutability": "view",
      "type": "function"
    },
    {
      "constant": false,
      "inputs": [
        {
          "internalType": "string",
          "name": "_productId",
          "type": "string"
        },
        {
          "internalType": "string",
          "name": "_title",
          "type": "string"
        },
        {
          "internalType": "string",
          "name": "_description",
          "type": "string"
        },
        {
          "internalType": "string",
          "name": "_createdDate",
          "type": "string"
        },
        {
          "internalType": "string",
          "name": "_createdById",
          "type": "string"
        }
      ],
      "name": "changeProductState",
      "outputs": [
        {
          "internalType": "bool",
          "name": "",
          "type": "bool"
        }
      ],
      "payable": false,
      "stateMutability": "nonpayable",
      "type": "function"
    }
  ],
  "bytecode": "0x608060405234801561001057600080fd5b5033600160006101000a81548173ffffffffffffffffffffffffffffffffffffffff021916908373ffffffffffffffffffffffffffffffffffffffff160217905550611a9a806100616000396000f3fe608060405234801561001057600080fd5b506004361061004c5760003560e01c806368111cce14610051578063740bb3d1146103355780638da5cb5b14610664578063b56559b2146106ae575b600080fd5b61010a6004803603602081101561006757600080fd5b810190808035906020019064010000000081111561008457600080fd5b82018360208201111561009657600080fd5b803590602001918460018302840111640100000000831117156100b857600080fd5b91908080601f016020809104026020016040519081016040528093929190818152602001838380828437600081840152601f19601f820116905080830192505050505050509192919290505050610a74565b60405180806020018060200180602001806020018060200186810386528b818151815260200191508051906020019080838360005b8381101561015a57808201518184015260208101905061013f565b50505050905090810190601f1680156101875780820380516001836020036101000a031916815260200191505b5086810385528a818151815260200191508051906020019080838360005b838110156101c05780820151818401526020810190506101a5565b50505050905090810190601f1680156101ed5780820380516001836020036101000a031916815260200191505b50868103845289818151815260200191508051906020019080838360005b8381101561022657808201518184015260208101905061020b565b50505050905090810190601f1680156102535780820380516001836020036101000a031916815260200191505b50868103835288818151815260200191508051906020019080838360005b8381101561028c578082015181840152602081019050610271565b50505050905090810190601f1680156102b95780820380516001836020036101000a031916815260200191505b50868103825287818151815260200191508051906020019080838360005b838110156102f25780820151818401526020810190506102d7565b50505050905090810190601f16801561031f5780820380516001836020036101000a031916815260200191505b509a505050505050505050505060405180910390f35b61064a600480360360a081101561034b57600080fd5b810190808035906020019064010000000081111561036857600080fd5b82018360208201111561037a57600080fd5b8035906020019184600183028401116401000000008311171561039c57600080fd5b91908080601f016020809104026020016040519081016040528093929190818152602001838380828437600081840152601f19601f820116905080830192505050505050509192919290803590602001906401000000008111156103ff57600080fd5b82018360208201111561041157600080fd5b8035906020019184600183028401116401000000008311171561043357600080fd5b91908080601f016020809104026020016040519081016040528093929190818152602001838380828437600081840152601f19601f8201169050808301925050505050505091929192908035906020019064010000000081111561049657600080fd5b8201836020820111156104a857600080fd5b803590602001918460018302840111640100000000831117156104ca57600080fd5b91908080601f016020809104026020016040519081016040528093929190818152602001838380828437600081840152601f19601f8201169050808301925050505050505091929192908035906020019064010000000081111561052d57600080fd5b82018360208201111561053f57600080fd5b8035906020019184600183028401116401000000008311171561056157600080fd5b91908080601f016020809104026020016040519081016040528093929190818152602001838380828437600081840152601f19601f820116905080830192505050505050509192919290803590602001906401000000008111156105c457600080fd5b8201836020820111156105d657600080fd5b803590602001918460018302840111640100000000831117156105f857600080fd5b91908080601f016020809104026020016040519081016040528093929190818152602001838380828437600081840152601f19601f820116905080830192505050505050509192919290505050610a98565b604051808215151515815260200191505060405180910390f35b61066c610b0c565b604051808273ffffffffffffffffffffffffffffffffffffffff1673ffffffffffffffffffffffffffffffffffffffff16815260200191505060405180910390f35b610a5a600480360360c08110156106c457600080fd5b81019080803590602001906401000000008111156106e157600080fd5b8201836020820111156106f357600080fd5b8035906020019184600183028401116401000000008311171561071557600080fd5b91908080601f016020809104026020016040519081016040528093929190818152602001838380828437600081840152601f19601f8201169050808301925050505050505091929192908035906020019064010000000081111561077857600080fd5b82018360208201111561078a57600080fd5b803590602001918460018302840111640100000000831117156107ac57600080fd5b91908080601f016020809104026020016040519081016040528093929190818152602001838380828437600081840152601f19601f8201169050808301925050505050505091929192908035906020019064010000000081111561080f57600080fd5b82018360208201111561082157600080fd5b8035906020019184600183028401116401000000008311171561084357600080fd5b91908080601f016020809104026020016040519081016040528093929190818152602001838380828437600081840152601f19601f820116905080830192505050505050509192919290803590602001906401000000008111156108a657600080fd5b8201836020820111156108b857600080fd5b803590602001918460018302840111640100000000831117156108da57600080fd5b91908080601f016020809104026020016040519081016040528093929190818152602001838380828437600081840152601f19601f8201169050808301925050505050505091929192908035906020019064010000000081111561093d57600080fd5b82018360208201111561094f57600080fd5b8035906020019184600183028401116401000000008311171561097157600080fd5b91908080601f016020809104026020016040519081016040528093929190818152602001838380828437600081840152601f19601f820116905080830192505050505050509192919290803590602001906401000000008111156109d457600080fd5b8201836020820111156109e657600080fd5b80359060200191846001830284011164010000000083111715610a0857600080fd5b91908080601f016020809104026020016040519081016040528093929190818152602001838380828437600081840152601f19601f820116905080830192505050505050509192919290505050610b32565b604051808215151515815260200191505060405180910390f35b6060806060806060610a8586610ba8565b9450945094509450945091939590929450565b6000600160009054906101000a900473ffffffffffffffffffffffffffffffffffffffff1673ffffffffffffffffffffffffffffffffffffffff163373ffffffffffffffffffffffffffffffffffffffff1614610af457600080fd5b610b01868686868661103c565b905095945050505050565b600160009054906101000a900473ffffffffffffffffffffffffffffffffffffffff1681565b6000600160009054906101000a900473ffffffffffffffffffffffffffffffffffffffff1673ffffffffffffffffffffffffffffffffffffffff163373ffffffffffffffffffffffffffffffffffffffff1614610b8e57600080fd5b610b9c878787878787611486565b90509695505050505050565b60608060608060606000866040518082805190602001908083835b60208310610be65780518252602082019150602081019050602083039250610bc3565b6001836020036101000a038019825116818451168082178552505050505050905001915050908152602001604051809103902060060160019054906101000a900460ff16610c9c576040517f08c379a00000000000000000000000000000000000000000000000000000000081526004018080602001828103825260168152602001807f50726f64756374206e6f7420617661696c61626c65210000000000000000000081525060200191505060405180910390fd5b600080876040518082805190602001908083835b60208310610cd35780518252602082019150602081019050602083039250610cb0565b6001836020036101000a038019825116818451168082178552505050505050905001915050908152602001604051809103902090508060000181600101826002018360030184600401848054600181600116156101000203166002900480601f016020809104026020016040519081016040528092919081815260200182805460018160011615610100020316600290048015610db15780601f10610d8657610100808354040283529160200191610db1565b820191906000526020600020905b815481529060010190602001808311610d9457829003601f168201915b50505050509450838054600181600116156101000203166002900480601f016020809104026020016040519081016040528092919081815260200182805460018160011615610100020316600290048015610e4d5780601f10610e2257610100808354040283529160200191610e4d565b820191906000526020600020905b815481529060010190602001808311610e3057829003601f168201915b50505050509350828054600181600116156101000203166002900480601f016020809104026020016040519081016040528092919081815260200182805460018160011615610100020316600290048015610ee95780601f10610ebe57610100808354040283529160200191610ee9565b820191906000526020600020905b815481529060010190602001808311610ecc57829003601f168201915b50505050509250818054600181600116156101000203166002900480601f016020809104026020016040519081016040528092919081815260200182805460018160011615610100020316600290048015610f855780601f10610f5a57610100808354040283529160200191610f85565b820191906000526020600020905b815481529060010190602001808311610f6857829003601f168201915b50505050509150808054600181600116156101000203166002900480601f0160208091040260200160405190810160405280929190818152602001828054600181600116156101000203166002900480156110215780601f10610ff657610100808354040283529160200191611021565b820191906000526020600020905b81548152906001019060200180831161100457829003601f168201915b50505050509050955095509550955095505091939590929450565b600080866040518082805190602001908083835b602083106110735780518252602082019150602081019050602083039250611050565b6001836020036101000a038019825116818451168082178552505050505050905001915050908152602001604051809103902060060160019054906101000a900460ff16611129576040517f08c379a00000000000000000000000000000000000000000000000000000000081526004018080602001828103825260168152602001807f50726f64756374206e6f7420617661696c61626c65210000000000000000000081525060200191505060405180910390fd5b600080876040518082805190602001908083835b60208310611160578051825260208201915060208101905060208303925061113d565b6001836020036101000a0380198251168184511680821785525050505050509050019150509081526020016040518091039020905061119d6118f3565b6040518060800160405280888152602001878152602001868152602001858152509050808260070160008460060160009054906101000a900460ff1660ff1660ff168152602001908152602001600020600082015181600001908051906020019061120992919061191b565b50602082015181600101908051906020019061122692919061191b565b50604082015181600201908051906020019061124392919061191b565b50606082015181600301908051906020019061126092919061191b565b5090505060018260060160008282829054906101000a900460ff160192506101000a81548160ff021916908360ff1602179055507fd551597b55fef0da37dd108f2b4288d37e9bff7a1e9e00d580832d15a1449c04888888886040518080602001806020018060200180602001858103855289818151815260200191508051906020019080838360005b838110156113055780820151818401526020810190506112ea565b50505050905090810190601f1680156113325780820380516001836020036101000a031916815260200191505b50858103845288818151815260200191508051906020019080838360005b8381101561136b578082015181840152602081019050611350565b50505050905090810190601f1680156113985780820380516001836020036101000a031916815260200191505b50858103835287818151815260200191508051906020019080838360005b838110156113d15780820151818401526020810190506113b6565b50505050905090810190601f1680156113fe5780820380516001836020036101000a031916815260200191505b50858103825286818151815260200191508051906020019080838360005b8381101561143757808201518184015260208101905061141c565b50505050905090810190601f1680156114645780820380516001836020036101000a031916815260200191505b509850505050505050505060405180910390a160019250505095945050505050565b600080876040518082805190602001908083835b602083106114bd578051825260208201915060208101905060208303925061149a565b6001836020036101000a038019825116818451168082178552505050505050905001915050908152602001604051809103902060060160019054906101000a900460ff1615611557576040517f08c379a0000000000000000000000000000000000000000000000000000000008152600401808060200182810382526025815260200180611a416025913960400191505060405180910390fd5b600080886040518082805190602001908083835b6020831061158e578051825260208201915060208101905060208303925061156b565b6001836020036101000a03801982511681845116808217855250505050505090500191505090815260200160405180910390209050878160000190805190602001906115db92919061199b565b50868160010190805190602001906115f492919061199b565b508581600201908051906020019061160d92919061199b565b508481600301908051906020019061162692919061199b565b508381600401908051906020019061163f92919061199b565b508281600501908051906020019061165892919061199b565b5060008160060160006101000a81548160ff021916908360ff16021790555060018160060160016101000a81548160ff0219169083151502179055507f97ba23f44241abd88615d522776289b8619bcda4bf217bf91d2f9500e2b45b7f888888888860405180806020018060200180602001806020018060200186810386528b818151815260200191508051906020019080838360005b8381101561170a5780820151818401526020810190506116ef565b50505050905090810190601f1680156117375780820380516001836020036101000a031916815260200191505b5086810385528a818151815260200191508051906020019080838360005b83811015611770578082015181840152602081019050611755565b50505050905090810190601f16801561179d5780820380516001836020036101000a031916815260200191505b50868103845289818151815260200191508051906020019080838360005b838110156117d65780820151818401526020810190506117bb565b50505050905090810190601f1680156118035780820380516001836020036101000a031916815260200191505b50868103835288818151815260200191508051906020019080838360005b8381101561183c578082015181840152602081019050611821565b50505050905090810190601f1680156118695780820380516001836020036101000a031916815260200191505b50868103825287818151815260200191508051906020019080838360005b838110156118a2578082015181840152602081019050611887565b50505050905090810190601f1680156118cf5780820380516001836020036101000a031916815260200191505b509a505050505050505050505060405180910390a160019150509695505050505050565b6040518060800160405280606081526020016060815260200160608152602001606081525090565b828054600181600116156101000203166002900490600052602060002090601f016020900481019282601f1061195c57805160ff191683800117855561198a565b8280016001018555821561198a579182015b8281111561198957825182559160200191906001019061196e565b5b5090506119979190611a1b565b5090565b828054600181600116156101000203166002900490600052602060002090601f016020900481019282601f106119dc57805160ff1916838001178555611a0a565b82800160010185558215611a0a579182015b82811115611a095782518255916020019190600101906119ee565b5b509050611a179190611a1b565b5090565b611a3d91905b80821115611a39576000816000905550600101611a21565b5090565b9056fe50726f6475637420616c72656164792070726573656e74207769746820676976656e204944a265627a7a72315820235de550b277e0819fa7fab3125ac35d8026597bd2a94963bf3664cb1b385ce264736f6c63430005100032",
  "source": "// SPDX-License-Identifier: None\n\npragma solidity >=0.4.22 <0.8.0;\n\nimport './Products.sol';\n\n/**\n * SupplyChain contract for tracking product\n *\n */\ncontract SupplyChain is Products {\n\n    address public owner;\n\n    modifier onlyOwner {\n        require(msg.sender == owner);\n        _;\n    }\n\n    constructor () public {\n        owner = msg.sender;\n    }\n\n    /**\n     * Adds new Product to contract\n     *\n     */\n    function addProduct(string memory _productId, string memory _name, string memory _description, string memory _manufacturer,\n        string memory _createdDate, string memory _createdById) public onlyOwner returns (bool) {\n\n        return Products.add(_productId, _name, _description, _manufacturer, _createdDate, _createdById);\n    }\n\n    /**\n     * Get product by product Id\n     *\n     */\n    function getProduct(string memory _productId) public view returns\n        (string memory, string memory, string memory, string memory, string memory) {\n\n        return Products.getById(_productId);\n    }\n\n    /**\n     * Change the state of Product\n     *\n     */\n    function changeProductState(string memory _productId, string memory _title, string memory _description, string memory _createdDate,\n        string memory _createdById) public onlyOwner returns (bool) {\n\n        return Products.changeState(_productId, _title, _description, _createdDate, _createdById);\n    }\n}",
  "sourcePath": "/private/var/www/html/blockchain/supply-chain-dapp-new/contracts/SupplyChain.sol",
  "compiler": {
    "name": "solc",
    "version": "0.5.16+commit.9c3226ce.Emscripten.clang"
  },
  "schemaVersion": "3.2.3",
  "updatedAt": "2020-09-01T21:22:28.608Z",
  "devdoc": {
    "methods": {}
  },
  "userdoc": {
    "methods": {
      "addProduct(string,string,string,string,string,string)": {
        "notice": "Adds new Product to contract     "
      },
      "changeProductState(string,string,string,string,string)": {
        "notice": "Change the state of Product     "
      },
      "getProduct(string)": {
        "notice": "Get product by product Id     "
      }
    },
    "notice": "SupplyChain contract for tracking product "
  }
}